:10000000F8FF0220990100001D560000D5550000A0
:10001000D5550000D5550000D5550000D555000038
:10002000D5550000D5550000D5550000D53000004D
:100030001D560000D5550000914B0000954B000067
:100040001D5600001D5600001D5600001D560000E4
:100050001D5600001D5600001D5600001D560000D4
:100060001D5600001D5600001D5600001D560000C4
:100070001D5600001D5600001D5600001D560000B4
:100080001D5600001D5600001D5600001D560000A4
:100090001D5600001D5600001D5600001D56000094
:1000A000A1930000AD9300001D5600001D560000F6
:1000B0001D5600001D5600001D5600000D61000079
:1000C0001D5600007D6800001D560000116E0000E6
:1000D0001D5600003D7400001D5600001D56000016
:1000E0001D5600001D5600001D5600001D56000044
:1000F0001D5600001D5600001D5600001D56000034
:100100001D5600001D5600001D5600001D56000023
:100110001D5600003D7C00001D5600001D560000CD
:100120001D5600001D5600001D5600001D56000003
:100130001D5600001D5600001D5600001D560000F3
:100140001D5600001D5600009D7900001D56000040
:100150001D5600001D5600001D5600001D560000D3
:100160001D5600001D560000B99300001D560000EA
:100170001D5600001D5600001D5600001D560000B3
:100180001D560000D93F00001D5600001D560000FE
:100190001D5600001D560000584B4CF2205210B561
:1001A0001A804DF628121A8000BF00BF05F03AFAF7
:1001B000534B4FF030621A60524A9A60524ADA60EA
:1001C000524B4FF470021A60514A136813F4807353
:1001D00004D150490B604FF4A85313604E4B1A786A
:1001E000110703D51A7842F008021A704B4B4C499C
:1001F0002A221A704B4A4C4B8B4204D252F8040FFD
:1002000043F8040BF8E7494B494900228B4202D2DC
:1002100043F8042BFAE74749474A002352F82300E2
:1002200041F823000133662BF8D1444B444A802126
:1002300003F8011B9342FBD1424B3E4A1A60424BEA
:100240008A221A70A3F5805324225A70A0221A70B1
:100250009A799207FCD59A79D406FCD43B4A9379D3
:1002600003F00C03082B394BF9D103221A714C22ED
:100270005A719A799006FCD5344A9179334B4906E4
:10028000FBD5334A4FF001711160042151602022E7
:100290001A709A7902F00C020C2AFAD12D4B2E4AD0
:1002A0001A602E4B2E4A1A6000225A60072243F829
:1002B000042C2C4AC3F80C2D62B605F017FB154B25
:1002C0001B68DA0705D5284805F070FA274B284A3D
:1002D0001A60284B1B785B0609D5244C244B2268F6
:1002E0009A4204D1204805F061FA002323600CF003
:1002F000CDFF05F09DF905F0CBF8FEE70E20054097
:1003000030800440823F04000100002B88ED00E0B3
:1003100010D0034014D0034002D0074000E0074053
:10032000D814FF1F285B0100F806FF1FD814FF1F19
:100330000459FF1F0002FF1F0000000000E400E05E
:1003400056E400E008ED00E00050064000400640A2
:100350004480044004800440C010050014E000E024
:100360007F320200000020207F5015601CE0034017
:10037000A5C3945A00F00740FFFFFFFFFFFFFFFFF8
:10038000FFFFFFFFFFFFFFFFFFFFFFFFFFFFFFFF7D
:10039000FFFFFFFFFFFFFFFFFFFFFFFFFFFFFFFF6D
:1003A000FFFFFFFFFFFFFFFFFFFFFFFFFFFFFFFF5D
:1003B000FFFFFFFFFFFFFFFFFFFFFFFFFFFFFFFF4D
:1003C000FFFFFFFFFFFFFFFFFFFFFFFFFFFFFFFF3D
:1003D000FFFFFFFFFFFFFFFFFFFFFFFFFFFFFFFF2D
:1003E000FFFFFFFFFFFFFFFFFFFFFFFFFFFFFFFF1D
:1003F000FFFFFFFFFFFFFFFFFFFFFFFFFFFFFFFF0D
:10040000FFFFFFFFFFFFFFFFFFFFFFFFDEF9FFFF23
:1004100010B5054C237833B9044B13B10448AFF33E
:1004200000800123237010BDD814FF1F00000000BE
:10043000245B0100084B10B51BB108490848AFF315
:1004400000800848036803B910BD074B002BFBD0A0
:10045000BDE81040184700BF00000000DC14FF1F7B
:10046000245B0100D814FF1F0000000010B5104BE2
:100470002DED028B0A24B0EE408A1C7000F042FB86
:1004800004210C4808F064FA0B4804F0CBFE0B4B37
:10049000204683ED008A01F013F9094B094C0FCB7C
:1004A000BDEC028B84E80F00BDE8104001F0CEBC2B
:1004B000983CFF1F4C4701002809FF1FF414FF1F41
:1004C0001C470100F806FF1F10B52DED028B86B00A
:1004D0000446B0EE408A8DED001A05A904A8B7EED7
:1004E000001A9FED320ACDED011A8DED022ACDEDF5
:1004F000032A00F001FE2CB1012C2DD006B0BDEC7A
:10050000028B10BD9DED001ADDED011A9DED022A52
:10051000DDED032ADDED050A2548B0EE480A02F0BC
:10052000B1FA9DED001ADDED011A9DED022ADDED17
:10053000032ADDED050A1F48B1EE480A02F0A2FACF
:100540001D4B059A83ED038A83ED0F8A9A609A63A7
:1005500006B0BDEC028B10BD9DED001ADDED011A59
:100560009DED022ADDED032ADDED050A1348B0EE0C
:10057000480A02F087FA9DED001ADDED011A9DEDA3
:10058000022ADDED032ADDED050A0D48B1EE480A29
:1005900002F078FA084B059A83ED078A83ED0B8AFF
:1005A0009A619A6206B0BDEC028B10BD000000009B
:1005B0009828FF1F8C28FF1F3428FF1FA428FF1F27
:1005C0002C28FF1F84B030B52DED028B814CDFED60
:1005D000825A2468814DDFED826A95ED006A814D73
:1005E0008BB00DF1400E01949DED017A7E4C95ED9E
:1005F000138AB8EE477A8EE80F00C7EE257A94E8A2
:100600000F0002AC84E80F00DDED108A77EEC67AA9
:10061000F4EEE67AF1EE10FA6CD442DADFED737A9A
:10062000B4EEE78AF1EE10FA00F1B380DFED707AF4
:10063000B4EEE78AF1EE10FA7ED4DFED6E7AB4EE16
:10064000E78AF1EE10FA00F197806B4B0FCB0AAC02
:1006500004E90F00F0EE680A9DED061ADDED071AB9
:100660009DED082ADDED092A0120B0EE480AFFF7CA
:100670002BFF9FED620A9DED061ADDED071A9DED39
:10068000082ADDED092AF0EE680A38EE400A00205B
:10069000FFF71AFF0BB0BDEC028BBDE8304004B091
:1006A00070479FED577AF4EEC77AF1EE10FAB5D5A0
:1006B0009DED021ADDED031A9DED042ADDED052AFC
:1006C000DFED500AB0EE480A0120FFF7FDFE4E4B69
:1006D000DDED110A93ED001AD3ED011A93ED022A14
:1006E000D3ED032AB0EE480A78EEA00A0020FFF707
:1006F000EBFECFE79DED021ADDED031A9DED042A16
:10070000DDED052ADFED3F0AB0EE480A0120FFF7D4
:10071000DBFE3D4BDDED120A93ED001AD3ED011A1D
:1007200093ED022AD3ED032AB0EE480A78EEE00AF0
:100730000020FFF7C9FEADE7334CDFED340A94ED3E
:10074000001AD4ED011A94ED022AD4ED032A0120F7
:10075000B0EE480AFFF7B8FEF0EE680AB1EE480ABC
:1007600094ED001AD4ED011A94ED022AD4ED032A77
:100770000020FFF7A9FE8DE7234C012094ED001A1D
:10078000D4ED011A94ED022AD4ED032AF0EE680AA2
:10079000DEE79DED021ADDED031A9DED042ADDED85
:1007A000052ADFED180AB0EE480A0120FFF78CFE9B
:1007B000154BF0EE680AB1EE480A93ED001AD3ED3E
:1007C000011A93ED022AD3ED032A0020FFF77CFEE5
:1007D00060E700BF5053FF1F00007A44F414FF1F6E
:1007E0009A99193F3428FF1F2C470100DB0FC93F9E
:1007F0001E361140DB0F49403C470100DB0FC9406A
:100800003433333F0AD7A33DF806FF1F8FC2753E2E
:1008100000207047027C02F0080202F0FF0332B1B0
:10082000C36A406A181A48BF6FF000407047184604
:10083000704700BF103002F0B3BF00BF00B583B0F7
:1008400001220DF10701103002F0E2FE01280CBF79
:100850009DF807004FF0FF3003B05DF804FB00BFC8
:10086000103002F0F7BF00BF103002F0F9BF00BF38
:1008700000B583B002AB012203F8011D1030194608
:1008800002F0EEFF03B05DF804FB00BF704700BF4D
:100890000B4A0C490C4B0D4810B4136000234FF465
:1008A0007A741374537413711373CB7181F83C34DD
:1008B00081F83D349460C1F860045DF8044B7047E2
:1008C000F814FF1F781EFF1F5C470100B44E0100A3
:1008D00030B510EE900A85B08DED021ACDED031AF9
:1008E0008DED000A0CF030F9184C194D41EC100B4D
:1008F0002046022104F0F0FC2846012106F0ACFF5E
:1009000002980CF021F941EC100B2046022104F072
:10091000E3FC2846012106F09FFF00980CF014F933
:1009200041EC100B2046022104F0D6FC28460121A0
:1009300006F092FF03980CF007F941EC100B2046EB
:10094000022105B0BDE8304004F0C6BC0409FF1F19
:100950007847010008B5254D254C02E0322002F011
:100960002BFB2B78002BF9D094ED020AD4ED030A6F
:1009700094ED041AD4ED051AFFF7AAFF092006F03A
:1009800061FF94ED060AD4ED070A94ED081AD4ED40
:10099000091AFFF79DFF092006F054FF94ED0A0A9B
:1009A000D4ED0B0A94ED0C1AD4ED0D1AFFF790FF5D
:1009B000092006F047FF94ED0E0AD4ED0F0A94EDDE
:1009C000101AD4ED111AFFF783FF092006F03AFF41
:1009D000E06C0CF0B9F841EC100B0421054804F070
:1009E0007BFC044804F01EFCB8E700BFAC28FF1FE6
:1009F0003428FF1F0409FF1F08B51149114801F0F1
:100A0000A9FF1149114801F0A5FF1149114801F052
:100A1000A1FF1149114801F09DFF114B00229A607E
:100A2000DA601A615A619A61DA611A625A629A62EC
:100A3000DA621A635A639A63DA631A645A6408BD05
:100A4000B408FF1F9828FF1FC808FF1FA428FF1F16
:100A5000DC08FF1F2C28FF1FF008FF1F8C28FF1F3A
:100A60003428FF1F30B52DED028B1E4C85B020467B
:100A700002F03EFD1C4A01921023009302941123C0
:100A80000E220F21194803F08BFF30B9184822219C
:100A900006F0E2FE174804F0C5FB0A211348164C85
:100AA000164D9FED178A04F00BF804F0ABFE10E032
:100AB00004F0A8FE0D4803F073FB80EE080AD4EDA5
:100AC000007A37EEC00A84ED000A04F09BFE23682A
:100AD000EB64064803F026FE0028E9D1032002F06B
:100AE0006BFAE2E77808FF1FC0C62D00003AFF1F2F
:100AF0008C4701000409FF1FB028FF1F3428FF1F87
:100B00000000C8420249034A00230B60D3647047C7
:100B1000B028FF1F3428FF1F70B40D4B00220E2693
:100B2000092504240821A3F88820C3F8842083F829
:100B30008A20A3F80261A3F80851A3F80A4183F8B8
:100B4000BC20A3F80411A3F8061170BC704700BFC5
:100B5000003AFF1F034A044B82ED000A05221A7077
:100B6000704700BF0C3BFF1F983CFF1F00B5374B81
:100B70009FED376A1B6889B003939DED037A354B6F
:100B8000B8EE477AD3ED006AC7EE067AB6EE007A81
:100B900077EEE67AF4EEC77AF1EE10FA2ED41ADA8E
:100BA0009FED2D7AF4EEC77AF1EE10FA06DB9FED99
:100BB0002B7AF4EEC77AF1EE10FA40D4284B29488C
:100BC00000220E211A7007F0C3FE274804F02AFB0A
:100BD00009B05DF804FB9FED207AF4EEC77AF1EEE0
:100BE00010FADDD502A901A8B7EE001ADFED1F0A41
:100BF0009FED1F0A00F080FA1E4B0AE0DFED1E0A8F
:100C000002A901A8B7EE001A9FED190A00F074FAC4
:100C10001A4B0FCB0DF1200E0EE90F00DDED020A8D
:100C20009DED041ADDED051A9DED062ADDED072A7E
:100C30009DED010A00F0E4FC09B05DF804FB02A997
:100C400001A8B7EE001ADFED0E0ADDE75053FF1FD3
:100C500000007A440C3BFF1F6666A63F3333134007
:100C6000983CFF1FD04701002809FF1FDBF97E3E9B
:100C700000000000C047010054E3A53DB04701005B
:100C8000B81E053E10B582B0002400941C4B1D48D0
:100C900080224FF4C47102F027F900941A4B1B48CC
:100CA00080224FF4527102F01FF90094184B19483A
:100CB000802240F6481102F017F90094164B1748AD
:100CC000802240F6481102F00FF90094144B1548A9
:100CD00080224FF4A96102F007F90094124B1348E7
:100CE000802240F6481102F0FFF80094104B1148A2
:100CF000802241F2481102F0F7F802B010BD00BFA7
:100D0000390D0000103BFF1F391B0000A03CFF1FE6
:100D100029230000F83FFF1F712800004049FF1FF2
:100D200055090000E022FF1F8D0800003015FF1F4D
:100D3000650A0000B828FF1FF8B5094E094D37466F
:100D40002B6801332B6004F05DFD044602F040F98E
:100D500004F058FD3368001B984288BF3860EFE705
:100D60009428FF1F8828FF1F08B5054E054D002455
:100D70004FF47A7034602C6002F01EF9F8E700BF7F
:100D80008828FF1F9428FF1F08B54FF4E131104851
:100D900004F098F901F090FD0E4B0F4918680368B4
:100DA000DB6998470D4B0C4918680368DB69984765
:100DB0000B4B094918680368DB699847094B0649DA
:100DC00018680368DB699847074801F073FFFEE77E
:100DD0000409FF1F7C47010020A107008447010090
:100DE0008847010080470100850C000008B50D48C8
:100DF0002DED028BB0EE408A01F0B6FDB0EE480A50
:100E0000094801F0B1FDB0EE480A084801F0ACFD18
:100E1000B0EE480ABDEC028B0548BDE8084001F081
:100E2000A3BD00BF9828FF1FA428FF1F2C28FF1F69
:100E30008C28FF1FFFFFFFFF70B506462DED028BCC
:100E400010EE100AB0EE408A0BF07EFE02460B4612
:100E50000BF0CEFE24A3D3E900230BF017FD24A34F
:100E6000D3E900230BF010FDDFED1D7A68EE277A41
:100E7000044617EE900A0D460BF066FE02460B463E
:100E8000204629460BF0DEFF0CF0AAF907EE900A87
:100E9000BFEE007AF4EEC77AF1EE10FA0BD4B7EE9B
:100EA000007AF4EEC77AF1EE10FA09DDBDEC028BA0
:100EB0000023336070BDBDEC028B0A4B336070BD04
:100EC0000BF042FE41EC100B08F03EFB51EC100B16
:100ED0000CF086F9BDEC028B306070BDAFF3008082
:100EE000EC51383EDB0F49400032E6AEBB96803F06
:100EF00000E48409B5DF9A3F2DE9F04F2DED028B18
:100F0000834683B010EE100AB0EE408AF0EE418ABC
:100F1000CDED010A8A460BF017FEDDED010A804691
:100F200010EE900A89460BF00FFE02460B4604466F
:100F30000D460BF05DFE424606460F464B464046C8
:100F400049460BF055FE02460B46304639460BF03B
:100F50009DFC9FED111B41EC100B08F0C5FB51EC03
:100F6000100B0CF03DF968EE287ACBF8000017EE74
:100F7000900A0BF0E9FD45EC114B41EC100B08F029
:100F800045FB51EC100B0CF02BF9CAF8000003B034
:100F9000BDEC028BBDE8F08F000000000000E03FD8
:100FA00084B02DE9F043504D504CD5ED007A9FEDC3
:100FB000506A94ED007A2DED048B70EE677AB6EEF0
:100FC000008A83B0F4EEC87AF1EE10FADDED136A10
:100FD00085ED000A58BFF0EE467AA7EEA67A0DF12D
:100FE000380E8EE80F00F0EE477A37EE207AC4ED27
:100FF000007A17EE100A0BF0A7FD9FED391B41ECAC
:10100000100BDDED118A159F9DED129A169E0E9C18
:101010000F9DDDF8408008F0FBFA51EC100B0CF04E
:10102000DFF807EE900AF4EEE78AF1EE10FA39DA0B
:10103000B7EE007A77EEE87A77EE688A29EE088ACA
:1010400087EEA87ADFED2B7AA7EE498A67EE277A3A
:1010500087ED008A17EE900A0BF076FD41EC100B3D
:1010600008F012FA53EC102BCDE9002328460BF0C0
:101070006BFDDDE900230BF0BBFD80462046894671
:101080000BF062FD02460B46404649460BF0FEFB64
:101090000CF0A6F8306003B0BDEC048BBDE8F04363
:1010A00004B07047C7EEA86A9FED127A67EE877AA0
:1010B00028EE498A87EEA87AA9EE268A17EE100A4A
:1010C00087ED008A0BF040FD41EC100B08F0DCF9D5
:1010D00053EC102B88F00040CDE90023C7E700BF98
:1010E000000000000000F03FEC3FFF1FF03FFF1F3B
:1010F00000000000DB0F494030B583B002AB002296
:1011000043F8042D04460D4618462146FFF7F4FE29
:101110002846D4ED000A9DED010AFFF78DFE03B0CD
:1011200030BD00BF00B5B5EEC00AF1EE10FA85B0D3
:101130003FD4F5EEC00AF1EE10FA3AD4B5EEC01A7B
:10114000F1EE10FA35D4F5EEC01AF1EE10FA30D403
:10115000DFED2B7AB4EEE70AF1EE10FA34DCB2EEF2
:10116000047AF4EEC70AF1EE10FA2DDCB4EEE71AB9
:10117000F1EE10FA28DCF4EEC71AF1EE10FA23DCD7
:10118000DFED207AB4EEE70AF1EE10FA27DDDFEDAD
:101190001E7AF4EEE70AF1EE10FA20D51A211B4868
:1011A00006F05AFB1A4804F03DF8002005B05DF83F
:1011B00004FB1121174806F04FFB154804F032F8E4
:1011C000002005B05DF804FB1821134806F044FB2D
:1011D0000F4804F027F8002005B05DF804FBDFEDB0
:1011E000097AB4EEE71AF1EE10FA06DDDFED067AC1
:1011F000F4EEE71AF1EE10FAD0D40120E1E700BFD7
:101200000000A04300004843CDCCCC3D8048010005
:101210000409FF1F9C480100B048010084B0F8B5E4
:101220002DED048B0AAC84E80F009DED0A8ADDEDFC
:101230000B7A78EE277AB5EE007AF4EEC77AF1EE03
:1012400010FA0DDD14214C4806F006FB4B4803F064
:10125000E9FF0020BDEC048BBDE8F84004B0704706
:1012600018EE100A0BF070FC9DED0E7A9DED0C9AB5
:10127000DDED0D8ADDED0F9AF6EE007A67EE277A46
:10128000064617EE900A0F460BF05EFC02460B4630
:101290000BF0AEFC324604460D463B46304639461E
:1012A0000BF0A6FC02460B46204629460BF0EEFA50
:1012B00041EC100B08F0B4FB0022314B51EC100B49
:1012C0000BF026FF04460028BCD138EE498ADFED3A
:1012D0002D7AB4EEE78AF1EE10FA2CD4F5EEC08A3E
:1012E000F1EE10FA06D9F7EE007AF4EEE78AF1EEA5
:1012F00010FA0DDD1921244806F0AEFA1F4803F05C
:1013000091FFBDEC048BBDE8F840002004B07047AD
:10131000F5EEC09AF1EE10FA24D4F2EE047AF4EE6F
:10132000E79AF1EE10FA14DCBDEC048BBDE8F8404E
:10133000012004B070471521144806F08DFA0F48BB
:1013400003F070FFBDEC048B2046BDE8F84004B00C
:1013500070471B210E4806F07FFA084803F062FF31
:10136000204677E71C210B4806F076FA034803F085
:1013700059FF20466EE700BF3C4901000409FF1FEA
:101380000000D03F0AD7A33DE4480100CC4801004B
:10139000204901000049010084B070B52DED028B99
:1013A0008CB013AC17AD84E80E00064695E8070034
:1013B0008DE807000BAB0AAD049394E80F001A9C6C
:1013C00003951B9DCDED061A8DED072ACDED082A5C
:1013D0008DED093AB0EE418AFFF7E2FD294620463D
:1013E000B0EE481ADDED0B0A9DED0A0AFFF784FE08
:1013F0003046D5ED000A94ED000A9DED061ADDEDAC
:10140000071A9DED082ADDED092A01F03BFB0CB01F
:10141000BDEC028BBDE8704004B0704784B0F0B5FD
:101420002DED068B9BB026AC84E80F000FCC0CADE5
:101430000FC594E8070026AE85E807000FCE13AE6F
:1014400035460FC5DDED2A8A9DED2C8A8DED062AE5
:10145000CDED072A8DED083A94E8070078EEC87ABA
:101460001AAB85E8070017EE902A43F8282D93E879
:1014700007008DE807000CACCDED093A94E80F00A9
:10148000F0EE40AAB0EE60AAF0EE419AB0EE619A9A
:10149000FFF7C4FE30B91BB0BDEC068BBDE8F040D1
:1014A00004B0704738EE288A1AAB18EE102A43F8B9
:1014B0000C2D93E807008DE8070096E80F00FFF772
:1014C000ADFE0028E7D09DED060ADDED070A9DED93
:1014D000081ADDED091AFFF725FE0028DBD0414B85
:1014E0009FED417A1B680B93DDED0B7A3F4D05951F
:1014F000F8EE677A16AF87EE878A97E80F008DE8D7
:101500000F0005F1040ECDF810E096E80E00DDEDB9
:10151000061A9DED072ADDED082A9DED093A3448AB
:10152000F0EE6A0AB0EE480ABFEE001AFFF734FF89
:1015300097E80F008DE80F0005F1100E05F1140774
:10154000CDF814E00497DDED061A9DED072ADDEDD8
:10155000082A9DED093A2748F0EE4A0AB0EE480AFB
:1015600096E80E00BFEE001A0FAEFFF715FF96E8E3
:101570000F008DE80F0005F1200E05F12407CDF8CE
:1015800014E00497DDED061A9DED072ADDED082A2B
:101590009DED093A1848F0EE690AB0EE480A94E861
:1015A0000E00B7EE001AFFF7F7FE96E80F008DE881
:1015B0000F0005F13006343505960495DDED061A69
:1015C0009DED072ADDED082A9DED093A0B48B0EEA6
:1015D000480AF0EE490A94E80E00B7EE001AFFF749
:1015E000DBFE58E75053FF1F00007A443C28FF1FE2
:1015F0009828FF1FA428FF1F2C28FF1F8C28FF1FDF
:1016000000B52DED028B294885B0F0EE408AB0EE92
:10161000608A8DED001ACDED011A8DED022ACDED17
:10162000032A01F02FFAF0EE480AB0EE680A9DEDA9
:10163000001ADDED011A9DED022ADDED032A1C489A
:1016400001F020FAF0EE480AB0EE680A9DED001AAB
:10165000DDED011A9DED022ADDED032A154801F0AA
:1016600011FAF0EE480AB0EE680A9DED001ADDEDC1
:10167000011A9DED022ADDED032A0F4801F002FA5E
:101680000E4BC3ED038A83ED028AC3ED078A83ED17
:10169000068AC3ED0B8A83ED0A8AC3ED0F8A83EDB8
:1016A0000E8A05B0BDEC028B5DF804FB9828FF1F85
:1016B000A428FF1F2C28FF1F8C28FF1F3428FF1F82
:1016C000394BD3ED007AF4EE677AF1EE10FA10B4EC
:1016D00007D6C0EBC002354903EB8202C2ED007AA7
:1016E0001960D3ED017A3049F4EE677AF1EE10FA21
:1016F00007D6C0EBC0022D4C01EB8202C2ED017A8D
:101700004C60D3ED027A2849F4EE677AF1EE10FAD4
:1017100007D6C0EBC002254C01EB8202C2ED027A73
:101720008C60D3ED037A2049F4EE677AF1EE10FA7B
:1017300007D6C0EBC0021D4C01EB8202C2ED037A5A
:10174000CC60D3ED047A1849F4EE677AF1EE10FA22
:1017500007D6C0EBC002154C01EB8202C2ED047A41
:101760000C61D3ED057A1049F4EE677AF1EE10FAC8
:1017700007D6C0EBC0020D4C01EB8202C2ED057A28
:101780004C61D3ED067A084BF4EE677AF1EE10FA6D
:1017900007D6C0EBC000054A03EB8000C0ED067A17
:1017A0009A615DF8044B70470807FF1F0000C07F77
:1017B000D0B51F4B9FED1F6A1B681F4ADFED1F6AE4
:1017C0001F4C82B001939DED017A1E4BB8EE477A13
:1017D0001B78C7EE067AC3EBC30302EB830393EDDA
:1017E000057A77EEA77A67EEA67A67EE877A17EE24
:1017F000900A0BF0A9F941EC100B07F045FE57ECED
:10180000106B0021B7EE000A0F4801F003FA3946C9
:1018100030460BF0E5FC0BF097F941EC100B022180
:10182000204603F059FD204603F0FCFC02B0D0BD79
:101830005053FF1F00007A440807FF1FDB0F494089
:101840000409FF1F983CFF1F9828FF1F84B070B544
:101850002DED068B574CDFED588A584DDFED589A29
:101860008AB00DF1500E04F110068EE80F0096E8D4
:101870000F00203402AE86E80F0094E80F009DEDC3
:10188000149ADDED160A9DED198A9DED17AA0AAC92
:1018900004E90F0079EE600A01A96846B0EE680A13
:1018A000B7EE001AFFF728FCDDED071A9DED082AB8
:1018B000DDED092A9DED061ADDED010A9DED000A18
:1018C000FFF79EFE9FED3F7AC7EE087A4FF47A74D9
:1018D000FCEEE77A17EE900A04FB00F000F57420A6
:1018E00000F23F20A5FB0030800C01F065FBDDED30
:1018F000150A01A9684679EE200AB0EE680AB7EE2B
:10190000001AFFF7F9FBDDED031A9DED042ADDED6A
:10191000052A9DED021ADDED010A9DED000AFFF793
:101920006FFE2AEE297AC7EE087AFCEEE77A17EE08
:10193000900A04FB00F000F5742000F23F20A5FBA4
:101940000030800C01F038FB01A96846F0EE490A2E
:10195000B0EE680AB7EE001AFFF7CEFB9DED061A4F
:10196000DDED071A9DED082ADDED092ADDED010AFE
:101970009DED000AFFF744FEDFED137A77EECA7A99
:1019800067EEA97A87EE887AFCEEC77A17EE900A9E
:1019900004FB00F000F5742404F23F24A5FB04309E
:1019A000800C01F009FB0AB0BDEC068BBDE870406D
:1019B00004B07047E04701000000000083DE1B43D5
:1019C0000024744900504348CDCC4C3FF0B54E4CF8
:1019D0004E4FDFED4F0A4F4D04F130030FCB04F1B2
:1019E00040062DED028B87E80F0096E80F008FB0C0
:1019F0009FED498A02AE86E80F00B0EE480A01A9C1
:101A00006846B7EE001AFFF777FB9DED021ADDED91
:101A1000031A9DED042ADDED052ADDED010A9DED99
:101A2000000AFFF7EDFD4FF47A6001F0C5FA04F10A
:101A300050030FCB06AE86E80F00DDED010ADDEDA9
:101A4000071A9DED082ADDED092A9DED061A9DED88
:101A5000000AFFF7D5FD4FF47A6001F0ADFA60346B
:101A600001A96846B0EE480AB7EE001ADFED2B0A6E
:101A7000FFF742FB94E80F000EAC04E90F00DDED28
:101A8000010A9DED0A1ADDED0B1A9DED0C2ADDED24
:101A90000D2A9DED000AFFF7B3FD4FF47A6001F0C7
:101AA0008BFA01211E4805F0D7FE284603F0BAFB49
:101AB0004FF47A7001F080FA01211A4805F0CCFE4B
:101AC000284603F0AFFB4FF47A7001F075FA01215C
:101AD000154805F0C1FE284603F0A4FB4FF47A70C8
:101AE00001F06AFA0121114805F0B6FE284603F01C
:101AF00099FB4FF47A7001F05FFA0D4B00221A70D7
:101B00000FB0BDEC028BF0BDE0470100F806FF1FEF
:101B10000AD7A33D0409FF1F000000007B142E3EDE
:101B20005C49010060490100644901006849010005
:101B3000983CFF1FFFFFFFFF2DE9F04F2DED028BBB
:101B40009FEDAF0ADFF8F892DFF8F882AD4EDFF8CC
:101B5000F8B29FEDAD8A95B0FFF748F9642001F027
:101B60002BFA9FEDA70AFFF741F90DAD0DF1240AFD
:101B700011AF99F800E0CEEBCE0408EB84040FCC53
:101B8000AC46ACE80F0094E807008CE80700BEF113
:101B90000C0F26D8DFE81EF0D7000D00BE0096001F
:101BA0007D00AF000D007400B2002900B5000D00EB
:101BB0002C0197E807008DE807009FED941A96ED39
:101BC000002AD6ED012A96ED023AD6ED033AF6EE5A
:101BD000001AB0EE410AF0EE610A95E80F00FFF737
:101BE0001DFC0A2001F0E8F9C3E7B7EE001ADFEDAB
:101BF000880A9FED860A514607A8FFF77DFA854BB4
:101C0000DBF800201B680893089B9FED836A9FED1B
:101C1000837A9B1A07EE903AF8EE677A67EE887A35
:101C2000C7EE866A66EE877A17EE900A0AF08CFF96
:101C300041EC100B07F0C8FB002053EC102B784947
:101C40000AF022FE0022774B0AF0D2FF02460B4632
:101C50000AF01CFE68A3D3E900230AF0C9FF0BF0C9
:101C6000BFFA96ED001AD6ED011A96ED022AD6EDCE
:101C7000032ADDED090A079000EE100AFFF7C0FC09
:101C800097E807008DE8070095E80F00FFF7DEFDF5
:101C9000A7E797E807008DE80700DFED5C1A96EDEF
:101CA000002AD6ED012A96ED023AD6ED033AB0EEBF
:101CB000611AF0EE610AB0EE610A95E80F00FFF7D5
:101CC000ADFB8EE797E807008DE8070096ED002A48
:101CD000D6ED012A96ED023AD6ED033A9FED4B0A76
:101CE00095E80F00F6EE001AB6EE081AF5EE000AB7
:101CF000FFF794FB75E7FEF739FF72E7FFF758FD32
:101D00006FE797E807008DE8070095E80F00FEF7FA
:101D100059FC66E797E807008DE80700DFED3B1AFE
:101D200096ED002AD6ED012A96ED023AD6ED033A59
:101D3000B6EE001AB0EE610AF0EE410A95E80F0027
:101D4000FFF76CFB4DE7384BDFED380A9FED2F0AAC
:101D50000FCBB7EE001A8AE80F0005A904A8FFF719
:101D6000CBF907A906A8B7EE001ADFED300A9FED00
:101D7000270AFFF7C1F99DED091ADDED0A1A9DED5D
:101D80000B2ADDED0C2ADDED070A9DED060A284839
:101D900000F078FE9DED091ADDED0A1A9DED0B2A83
:101DA000DDED0C2ADDED050A9DED040A214800F069
:101DB00069FE9DED091ADDED0A1A9DED0B2ADDED98
:101DC0000C2ADDED050A9DED040A1B4800F05AFEC1
:101DD0009DED091ADDED0A1A9DED0B2ADDED0C2AA9
:101DE000DDED070A9DED060A144800F04BFEF8E60B
:101DF000FFF7ECFDF5E600BF00000060FB210940A5
:101E000000004842F806FF1FCDCCCC3D000000008A
:101E10008FC2753E5053FF1F00007A44DB0FC9404C
:101E20000000F03F0000E03F504801009A99193E41
:101E30009828FF1FA428FF1F2C28FF1F8C28FF1F96
:101E4000983CFF1F0807FF1FE83FFF1F2DE9F041E7
:101E50006A4E6B486B4D6C4C6C4FDFF8D481082197
:101E600005F0FAFC3378C3EBC30305EB8303586931
:101E70000AF06AFE41EC100B0421204603F02CFA14
:101E80000A2005F0DFFC0F21614805F0E5FC3378FE
:101E9000C3EBC30305EB830318690AF055FE41EC5D
:101EA000100B0421204603F017FA0A2005F0CAFCA3
:101EB0001121584805F0D0FC3378C3EBC30305EB80
:101EC000830318680AF040FE41EC100B0421204601
:101ED00003F002FA0A2005F0B5FC12214E4805F085
:101EE000BBFC3378C3EBC30305EB830358680AF0EC
:101EF0002BFE41EC100B0421204603F0EDF90A20E3
:101F000005F0A0FC1021454805F0A6FC3378C3EB92
:101F1000C30305EB830398680AF016FE41EC100B2F
:101F20000421204603F0D8F90A2005F08BFC152186
:101F30003B4805F091FC3378C3EBC30305EB830307
:101F4000D8680AF001FE41EC100B0421204603F092
:101F5000C3F90A2005F076FC1321324805F07CFC19
:101F60003378C3EBC30305EB8305A8690AF0ECFDE6
:101F700041EC100B0421204603F0AEF90A2005F0D5
:101F800061FC0721284805F067FC38680AF0DCFD91
:101F900041EC100B2046042103F09EF9404601213C
:101FA00005F05AFC78680AF0CFFD41EC100B0421D3
:101FB000204603F091F90A2005F044FC07211B4854
:101FC00005F04AFCB8680AF0BFFD41EC100B204652
:101FD000042103F081F94046012105F03DFCF86839
:101FE0000AF0B2FD41EC100B2046042103F074F915
:101FF0000A20BDE8F04105F025BC00BF983CFF1F5A
:102000006C4901000807FF1F0409FF1FF806FF1FA6
:1020100078490100884901009C490100B04901004C
:10202000C4490100DC490100F0490100F849010000
:10203000D84901000B4B0C4810B5052106241C7033
:1020400005F00AFC094803F0EDF82046FFF738FBDD
:10205000074B084C0FCB84E80F00BDE81040FFF79A
:10206000F5BE00BF983CFF1F004A01000409FF1F96
:1020700060480100F806FF1F0B4B0C4810B5052106
:1020800004241C7005F0E8FB094803F0CBF8204657
:10209000FFF716FB074B084C0FCB84E80F00BDE899
:1020A0001040FFF7D3BE00BF983CFF1F084A010055
:1020B0000409FF1F10480100F806FF1F0B4B0C48D6
:1020C00010B5052102241C7005F0C6FB094803F079
:1020D000A9F82046FFF7F4FA074B084C0FCB84E829
:1020E0000F00BDE81040FFF7B1BE00BF983CFF1FD6
:1020F000104A01000409FF1F10480100F806FF1FE5
:102100000B4B0C4810B5042103241C7005F0A4FBF4
:10211000094803F087F82046FFF7D2FA074B084C2E
:102120000FCB84E80F00BDE81040FFF78FBE00BF63
:10213000983CFF1F184A01000409FF1F10480100C6
:10214000F806FF1F0C4B0D4870B5042101241C70CC
:1021500005F082FB0A480B4D03F064F82046FFF7B8
:10216000AFFA094B094C0FCB00266E6384E80F00D1
:10217000BDE87040FFF76ABE983CFF1F204A01008F
:102180000409FF1F0807FF1F10480100F806FF1F82
:102190000B4B0C4810B509210B241C7005F05CFB9F
:1021A000094803F03FF82046FFF78AFA074B084C2E
:1021B0000FCB84E80F00BDE81040FFF747BE00BF1B
:1021C000983CFF1F284A01000409FF1F70480100C6
:1021D000F806FF1F10B5084B0848072403211C70A0
:1021E00005F03AFB064803F01DF82046FFF768FAB1
:1021F000BDE81040FFF72ABE983CFF1F344A01009B
:102200000409FF1F10B582B01C466A4601AB00F0FE
:1022100005FC012801D002B010BD94E80C00009923
:102220001160019A1A6003F0EDFA054B054A186037
:102230001B681168044A5B1A536002B010BD00BFEE
:102240002828FF1FA028FF1F3428FF1F2DE9F04F6B
:10225000CB6B91F8049083B00E46013356F8058B92
:1022600001920D460446CB6300274FF0020B4FF05E
:10227000030A236820461B69984700B32368204659
:102280005B69984795F82C30C0B2032BF1D8DFE892
:1022900003F02A301902AB6A0A2803F10102AA628C
:1022A000F054E6D1AB6A434530D385F82C70AF6269
:1022B0002F63236820461B6998470028DED103B0AE
:1022C000BDE8F08FAB6A5A1CAA62F054A96A2B6B66
:1022D0009942CED16B79502BE7D1019B22463046F3
:1022E000FFF790FFE1E78145C3D1012385F82C304A
:1022F000BFE74045286302D385F82C70B9E7002872
:1023000014BF5B46534685F82C30B2E7F75430468D
:102310000BF0D6FD0146304605F09EFA85F82C708C
:10232000AF622F63C5E700BFF0B5384C384AC9B07B
:1023300000232020012108901890289038908DF8D3
:1023400024108DF864108DF8A4108DF8E410129309
:102350008DF84C30149315931693179322938DF8A0
:102360008C30249325932693279332938DF8CC3089
:10237000349335933693379342938DF80C314493CD
:10238000459346934793276800923B6802F11001FA
:10239000101D02F1140602F1200502F1240402913D
:1023A00002F130013432069107920190DB6B039603
:1023B0003846049505949847164B1E683368304696
:1023C000DB6B9847144B1D682B682846DB6B9847DE
:1023D000124B1C6823682046DB6B98476A4608A9A5
:1023E0003846FFF733FF02AA18A93046FFF72EFF41
:1023F00004AA28A92846FFF729FF204606AA38A9DB
:10240000FFF724FF012000F0D7FDE7E77C4701003C
:102410004428FF1F844701008847010080470100CE
:1024200010B588B003AB0DF10B02A94904460BF0BF
:102430000BFD00284CDD9DF80B30313B442B00F2A6
:10244000B581DFE813F06E01B301B301B301B3014D
:10245000B301B301B301B301B301B301B301B301DC
:10246000B301B301B301B3016B01B30132012F0119
:102470002101B3011E01B3010901B301B301B3018D
:10248000B301B3010601B3018A017F017C01B301ED
:10249000B3017901B301B001B301B301B301B301D9
:1024A000B301B301B301B301B301B3019501B301AA
:1024B000EB00D500BA00B301B301B3019F00B30133
:1024C000B301B3018400B301B3016900B3014E004D
:1024D00080480F2105F0C0F97F4802F0A3FE08B044
:1024E00010BD10217D4805F0B7F903980AF02CFBC8
:1024F00041EC100B0421784802F0EEFE01217848EF
:1025000005F0AAF9774B784A1B780399C3EBC3030C
:1025100002EB83039960E2E71C21744805F09CF903
:1025200003980AF011FB41EC100B04216A4802F0F9
:10253000D3FE01216A4805F08FF96A4B6A4A1B787D
:102540000399C3EBC30302EB83039961C7E713212C
:10255000674805F081F903980AF0F6FA41EC100B90
:1025600004215D4802F0B8FE01215D4805F074F9D0
:102570005C4B5D4A1B780399C3EBC30302EB8303F7
:10258000D960ACE713215B4805F066F903980AF0BF
:10259000DBFA41EC100B04214F4802F09DFE0121B3
:1025A0004F4805F059F94F4B4F4A1B780399C3EB3D
:1025B000C30302EB8303196191E713214E4805F031
:1025C0004BF903980AF0C0FA41EC100B0421424881
:1025D00002F082FE0121424805F03EF9414B424A99
:1025E0001B780399C3EBC30302EB8303196076E7FF
:1025F00007AA06AB20460192009304AA05AB3F4907
:102600000BF022FC0428044600F0D88014213C483A
:1026100005F022F9304802F005FE60E70E21394846
:1026200005F01AF903980AF08FFA41EC100B042117
:10263000294802F051FE0121294805F00DF9294BE6
:10264000294A1B780399C3EBC30302EB8303596147
:1026500045E7FFF711FD42E72B4B9FED2C0A1B6866
:102660000693DDED067AF8EE677A87EE800AFEF7CC
:1026700071FA0421264805F0EFF8174802F0D2FD60
:102680002DE7FFF7A7FD2AE71F4B9FED200A1B68E8
:102690000793DDED077AF8EE677A87EE800AFDF79B
:1026A000E5FE1CE7FFF7C6FC19E71A4C1A48237829
:1026B000102183F00103237005F0CEF8217806483D
:1026C00002F000FE0121064805F0C6F807E700BF4A
:1026D000384A0100404A01000409FF1FAC4A0100CA
:1026E000604A0100983CFF1F0807FF1F784A01005D
:1026F000D44A0100644A0100984A0100E84A0100F6
:10270000084B0100504A01005053FF1F00007A445B
:102710003C4B0100AC28FF1F204B0100FFF7CEFC13
:10272000DDE6474B4748082207211A7005F094F868
:10273000454802F077FDD2E6FFF7E2FCCFE6FFF76F
:1027400001FDCCE63E4B4148002204211A7005F001
:1027500083F83D4802F066FDC1E6394B3C480C2247
:1027600005211A7005F078F8374802F05BFDB6E6EF
:102770001221384805F070F803980AF0E5F941ECA9
:10278000100B0421304802F0A7FD0121324805F06A
:1027900063F82B4B314A1B780399C3EBC30302EB5D
:1027A000830359609BE6FFF7F3FC98E60F212C4862
:1027B00005F052F8244802F035FD90E60E21294834
:1027C00005F04AF804980AF0BFF941EC100B2146D5
:1027D0001D4802F081FD0121234805F03DF80598D0
:1027E0000AF0B2F941EC100B2146174802F074FDD3
:1027F00001211D4805F030F806980AF0A5F941ECD2
:10280000100B2146104802F067FD0121164805F023
:1028100023F807980AF098F941EC100B21460A4872
:1028200002F05AFD01210C4805F016F80F4B049CEC
:1028300005980699079A1C6058609960DA604EE620
:10284000983CFF1F4C4B01000409FF1F344B010053
:10285000444B0100C04A0100604A01000807FF1F05
:10286000544B0100F84A0100D8490100F806FF1F47
:1028700030B500248BB0254605F022F878B105F07C
:102880002FF8C0B20AAB3B2823440CD00A280AD048
:1028900003F8240C013405F013F80028EFD10A20C6
:1028A00000F08AFBE8E70AAB1C4401A804F8245CAA
:1028B0000024FFF7B5FDDFE710B51D4C1D481821BA
:1028C00004F0CAFF204602F0ADFC06211A4804F0CD
:1028D000C3FF204602F0A6FC0D21184804F0BCFFFF
:1028E000204602F09FFC0F21154804F0B5FF20465A
:1028F00002F098FC1021134804F0AEFF204602F0CD
:1029000091FC0E21104804F0A7FF204602F08AFC3B
:1029100013210E4804F0A0FF204602F083FC0C486F
:10292000112104F099FF2046BDE8104002F07ABC66
:102930000409FF1F644B0100804B0100884B01001C
:10294000984B0100A84B0100BC4B0100CC4B01008F
:10295000E04B010010B401240022047101604271B7
:102960005DF8044B704700BF70B504462DED028B37
:10297000006821790368264E1B6882B08DED010A3C
:1029800098472068617903681B6898472568214942
:102990002B6821225B68284698479DED010A10EEBE
:1029A000100A0AF0D1F841EC180B2846B0EE480A9C
:1029B000F0EE680A042102F08FFC2B6801223146F8
:1029C00028465B6898472068217903681B68984708
:1029D0002068617903681B68984724680E4923685A
:1029E00021225B6820469847B0EE480AF0EE680A5C
:1029F0002046042102F070FC23685B6831462046C3
:102A0000012202B0BDEC028BBDE87040184700BF48
:102A1000604A01005C4C0100804C0100062928D16D
:102A2000F0B4867844780779C17886EA04057D4059
:102A300044EA0624067840794D40754041EA072172
:102A4000A84224B209B217D107EE904AB8EEE77A4D
:102A500007EE901ADFED0A6AF8EEE77A87EE266A4B
:102A6000012087EEA67A82ED006A83ED007AF0BC41
:102A700070474FF0FF3070474FF0FF30F7E700BF6F
:102A800000007A442DE9F04FDFED607A9FED607A27
:102A900061EEA76A8BB0FDEEE66A8DED061ACDED0C
:102AA000016A21EE271A62EE276ABDEEC16AFDEEC9
:102AB000E66A62EEA77A8DED006ACDED026ABDF995
:102AC0000080BDF90470BDF90810CDED071AFDEEC8
:102AD000E77A60EE870ACDED007A5FFA88FB5FFA4D
:102AE00087FACAB214468AEA0B03BDF900200294A1
:102AF000FDEEE07A20EE070A83F05303D5B263407F
:102B0000CDED017AC8F30728FDEEC07A6B40BDF920
:102B10000460CDED047AC7F3072788EA0304009523
:102B2000C1F3072305467C400068BDF9109003936C
:102B30005FFA86FEC2F307225C400192734654405E
:102B40000268CDF810E05C405FFA89F38DED082A49
:102B5000CDED092A0593297912685C4090472868D1
:102B600002680E2112689047286802685321126893
:102B700090472868059B026819461368984728689B
:102B80000368C9F3072949461B6898472868036802
:102B900059461B6898472868036841461B68984750
:102BA0002868036851461B689847286803683946B7
:102BB0001B6898472868049903681B689847286829
:102BC0000368C6F3072631461B68984728680299B0
:102BD00003681B6898472868039903681B6898472F
:102BE0002868009903681B6898472868019903685A
:102BF0001B68984728680368744089EA04041B68C6
:102C000021460BB0BDE8F04F184700BF0000C84296
:102C100000007A4430B504460068036883B08DED47
:102C2000010A0D461B68217998472068617903687D
:102C30001B68984724681249236802225B68204673
:102C400098472946204602F03DFB23680D495B6802
:102C50000122204698479DED010A10EE100A09F066
:102C600073FF41EC100B2046042102F035FB236872
:102C700005495B682046012203B0BDE83040184793
:102C80000C4D0100D8490100604A010008B5002040
:102C90000DF060F9054A1368984205D9044909689E
:102CA00088423CBF10600346184608BD8852FF1F8B
:102CB0008C52FF1F10B582B072B6154C2060FFF722
:102CC000E5FFADF10C03984201900AD2431EADF12D
:102CD0000D01552203F8012F8B42FBD1ADF10C03FE
:102CE00001930C4B1B6883F308880B4B1B6883F321
:102CF0000988062383F31488BFF36F8F00F0D6F999
:102D000000F01AF8236803B19847FEF72DF8FCE7A6
:102D10009052FF1F7408FF1F8C52FF1F034B044A81
:102D20001B68A3F5C8731360704700BF7408FF1FCA
:102D30008C52FF1FFEE700BFF8B5184E184D194C16
:102D400000F066FA00F058F900F01CFA30468022D4
:102D5000154900F053F8154B01220277DF68144A39
:102D600046F8180C4FF6FF0139400A43DA60EA686A
:102D700042F08072EA602268102042F001022021B5
:102D80002260D877002283F8221082F3118862B67D
:102D90000848BDE8F84000F08FB800BFB058FF1FEA
:102DA000F0ED00E0001000E0744D010000ED00E0E7
:102DB0000003FA054C4D0100F8B50F4D2E46AA6AE6
:102DC00056F81C3F0132B342AA6213D09C68013C02
:102DD0009C607CB920271A68D968DC605660EA617B
:102DE00084F311881869884787F31188EB699A681A
:102DF000002AF0D0F8BD00BF8058FF1FF0B50D4C81
:102E0000826365698161826000F1280100224FF0D0
:102E1000020E012700F124064561046180F81CE0E0
:102E2000877742774263026328616061466281620C
:102E3000C162F0BD8058FF1F836841691C4AF0B52C
:102E4000022506690468C76803F8245C0020012590
:102E500003F8230C03F8225C556943F8284CA3F1CE
:102E6000A40443F8646C43F8601C43F8344CA3F1A9
:102E70004001A3F11804DFF83CE043F80C0CA3F187
:102E80001C0643F8100C43F8387C43F8087C43F8E0
:102E900044EC43F8302C43F82C5C0846296151611E
:102EA00043F81C6C43F8184C43F8144CF0BD00BFB9
:102EB0008058FF1F6D31000043688268934210B54F
:102EC00004D2552103F8011B9A42FBD1202383F33E
:102ED0001188FFF7B1FF0021044600F0EDF900234F
:102EE00083F31188204610BDF8B54518A84205D2D5
:102EF0000446552604F8016BA542FBD1202484F337
:102F0000118840394418164E06997769154D44F8D2
:102F1000243C022344F8201CA26044F8045CA26311
:102F200000252377A4F1640C04F1280304F12402A2
:102F300001200D49C4F80CC0A077A161266167612A
:102F400065776563256320463C6129466262A3621A
:102F5000E362746100F0B0F985F311882046F8BD92
:102F60008058FF1F6D3100006C4D010038B50E4BCD
:102F70009C69636A206204F124059D4207D01A68A7
:102F80006262184600F04EF9636AAB42F7D1A37F44
:102F900023B9636922691A61226953610F20BDE870
:102FA000384000F055B900BF8058FF1F202383F33D
:102FB0001188FFF7DBBF00BF08B50146202383F36C
:102FC0001188082000F056F9002383F3118808BD0A
:102FD00008B5202383F31188064B1A689B69926811
:102FE0009B689A4201D300F09FF9002383F3118874
:102FF00008BD00BF8058FF1F054B4FF0FF3003F1A5
:103000001C02002158629962DA611A62704700BF9F
:103010008058FF1F70B40D4EF469A5680361A94282
:10302000C26004D92468491BA5688D42FAD363683D
:1030300043600460186060608160A3684FF0FF32F5
:10304000591AA160726270BC704700BF8058FF1FA0
:1030500003688268416830B49D68064C2A449A60CF
:103060000B60056800224FF0FF336960C260636245
:1030700030BC70478058FF1F0A4A0B4908B51368D7
:1030800009680133136001B908BD202383F3118857
:10309000FFF792FE002383F31188BDE8084000F09B
:1030A00029B800BF5053FF1F9452FF1F054A06481E
:1030B0000649074BD063F020012281F823001A60F3
:1030C000704700BF0002FF1F7930000000ED00E0F4
:1030D0009452FF1F064A536823F001035360EFF335
:1030E0000983683383F30988002383F311887047C9
:1030F00030EF00E0202383F31188124B5B6813F458
:10310000006302D183F31188704710B5F1EE103AD5
:10311000EFF309840C4B4FF08072DB6844F8083CF5
:1031200044F84C2CA4F1680383F3098800F0F0F80C
:1031300018B1064B44F8503C10BD054B44F8503CC8
:1031400010BD00BF00ED00E030EF00E07D31000079
:10315000803100002DE9F04F2DED108AC1F80CD020
:10316000C3689D46BDEC108ABDE8F08F002383F351
:1031700011882846A0470020FFF718FF00F0F2F85A
:1031800000DFFEE7034B0449044A0B608033136001
:10319000704700BF9C52FF1F1C53FF1F9852FF1F18
:1031A00010B4202383F31188037F072B0ED8DFE8A8
:1031B00003F0270D0D2308040D08026A93680133FC
:1031C000936090E80C001A60026853604FF0FF347F
:1031D000002281680D4B046202771B689A688A425C
:1031E000FBD25A684260036000211060586081F38E
:1031F00011885DF8044B7047036A00221A60E5E706
:10320000002383F311885DF8044B70478058FF1F3B
:10321000034B00221B605B601B615B619A6070471F
:103220008058FF1F00228168084B10B404460277C3
:103230001B689A688A42FBD25A6862602360204603
:1032400014605C605DF8044B704700BF8058FF1F3E
:10325000074B99691A6810B4087710681860012440
:103260004360147710465DF8044B9A61FFF772BF14
:103270008058FF1F30B54B1C87B012D00C4C0D4A44
:10328000A369054601A8FFF7C5FE2846FFF7E0FF42
:10329000049B13B101A8FFF7DBFEA369186A07B00E
:1032A00030BD034CFFF7D4FFA369186A07B030BDE7
:1032B0008058FF1FA1310000144B70B404469D6973
:1032C0000162A868A16881424FF000020BD8227702
:1032D0001B689A689142FBD95A6862602360146047
:1032E0005C6070BC70472A771A4612689168884201
:1032F000FBD95068686001262A6005605560267712
:10330000294620469C6170BCFFF724BF8058FF1FF0
:10331000044B1A689B6990689B68984294BF002090
:10332000012070478058FF1F0D4A1068036830B4B1
:10333000012194695A6000250177A16813609061AA
:10334000257700E01B689A688A42FBD25A6862605F
:103350002360214614605C6030BCFFF7FBBE00BFF9
:103360008058FF1F0D4A1068036830B4012194692A
:103370005A6000250177A16813609061257700E00D
:103380001B689A688A42FBD85A68626023602146AB
:1033900014605C6030BCFFF7DDBE00BF8058FF1FCB
:1033A00010B4047F4160022CC26003D05DF8044B6E
:1033B00001F08CBB83685DF8044B1847F0B4464BB2
:1033C000464A186BDC6A01791170454922790A7006
:1033D0009A6A00790870002A46D05968C9688A42FA
:1033E0003ED82168CC8B240402F1FF3065D4C0F3B1
:1033F0000E00C883C88B80B2C882196B0968C88B5D
:10340000000452D4C2F30E00C883C88B002480B2DB
:1034100012F1FF32C88218BF01229C62D96A2E487D
:1034200009680D6800F12404A54236D00068C4681C
:1034300014F0804F0C680D6815BF2488247802357D
:10344000013544F000440D604463196B254B097944
:103450001970214912B1CA6A12791A70F0BC70470A
:10346000521A9A620122D9E7586B196805681E4CF6
:103470000A63CC62CC682D681C4E24F0804403277C
:10348000B542CC6083F825701FD1037F4260022BC8
:10349000C2601ED0F0BC01F019BB016890F8240096
:1034A000CC6840F000404863CFE7CC8BC2F3080003
:1034B00004F47E442043C883A7E7CC8BC0F3080004
:1034C00004F47E442043C88394E72B461146F0BCA5
:1034D00018478368F0BC18477808FF1F1F8000401A
:1034E0001C8000401B80004000000FFFA133000043
:1034F00090E80C00F0B41C6859682568164F174E08
:1035000029432160164D17491760D6601561116077
:10351000417A154A5C180C3194F82C4053F821502C
:1035200002EBC40149680D60017A5C1803EB81016C
:10353000247ECD6902EBC40149680D60817A581878
:1035400003EB810390F84000596C02EBC002F0BC21
:1035500053681960704700BF01401F000110003818
:103560000110007800001F809851010010B504463A
:1035700080680A462430A16900F08CFA20B1A38843
:1035800003F00F0300EB431010BD00BF38B590F9F6
:103590000230002B044618DBA56805F1240000F07A
:1035A000A9FA28B9637843F001036370002038BD9D
:1035B00005F50C7000F09EFA0028F3D02868036827
:1035C0005B6898470028EDD0F1E70121FFF7CEFFB7
:1035D00005460028E6D00378E52BE3D023780B4A94
:1035E0001B0744BFE369C361236A126843831B0C52
:1035F00083822AB100F11601183090472B8B6B8221
:10360000A37803F07F03A370C6E700BF2053FF1F1A
:103610002DE9F04F0F46017883B0054611B183784C
:10362000DC0708D46B784FF0FF3043F002036B7077
:1036300003B0BDE8F08F0B07914600F18780880644
:1036400008D5AA686B691289C3EB42139BB29945EE
:1036500028BF9946B9F1000F00F097806B698A0680
:103660004E464FF0000805F1100AC3F3080B3FD592
:10367000AA68116A01EB5321BBF1000F52D1B6F5D4
:10368000007F4FD3D36A99424CD0B6F5806F66D392
:10369000287880064FEA562B06D41079C8EB000034
:1036A000C0B2834528BF834699424FEA4B240BD3CF
:1036B0005B44994208D202F12400019100F01AFA09
:1036C0000028AFD0AA680199106802685B46D2F85A
:1036D0000CB03A46D8470028A4D06B69361B234467
:1036E00027446B6151D029788A06C3F3080BBFD4F5
:1036F000A86890F8058008EA5328BBF1000F2CD188
:10370000B8F1000F29D1002B34D14C064CBF016A0F
:10371000296A296100F0F6F9AA6808EB0001BBF1FB
:10372000000FACD002F12400002200F0B3F9002811
:103730003FF478AFCBF50074B44228BF344600EBB9
:103740000B012246384601F0ABFEC6E7EB696A6919
:103750009B1A994528BF99467CE72969DAE71068E2
:1037600003683A461B68984700283FF45BAF4FF464
:103770000074B2E75246296900F0CAF90028FFF642
:1037800051AF08D0A8682969C4E70026C6EB090034
:1037900003B0BDE8F08F2B7813F0700FF6D141E73E
:1037A00070B582B001220DF1070104464669056932
:1037B000FFF72EFF012805BF9DF8070066614FF057
:1037C000FF30256102B070BD2DE9F0410378076933
:1037D000044693B142698A420E4636D021B921612E
:1037E00066610120BDE8F08118070AD499060BD55F
:1037F000A3681B89B6EB431FF2D927610020BDE8FF
:10380000F081E1698E42F8D8D4F808E09EF80650BD
:10381000511E05F10900751EC140C540A94200D8DE
:10382000B2B95B064CBFDEF82030236A236104F195
:1038300010084246002DD3D02169A06800F068F935
:10384000002805F1FF35F4DCD7E70120BDE8F08161
:103850006D1AECE703780BB1FFF798BE01207047B3
:103860002DE9F84F03781E0704466FD583789D072E
:103870006CD55B070F46904600F1CD806369DA4353
:10388000904563D8B8F1000F00F0B68046464FF07F
:10389000000933E0002940F08380216A002900F00C
:1038A0008A80216100F02EF90146B6F5007F55D3DC
:1038B000B6F5806F66D3A2681379D06A5B1BDBB262
:1038C000750AAB4228BF2B4681424FEA432508D3F5
:1038D0001844814205D282F824904FF0FF30D06224
:1038E000A26810680268D2F810A03A46D04768B3C0
:1038F0006369761B2B442F4463617DD0A0682169E6
:10390000457915EA5325C3F3080A34D1BAF1000FFB
:10391000C0D000F0F7F80146CAF50075B54228BFDF
:1039200035460122A068243000F0B4F870B150444C
:103930002A463946AA4401F0B3FDBAF5007FD7D133
:10394000A068243000F0D6F80028D1D1637843F085
:10395000010363704FF0FF30BDE8F88F6369E269DF
:10396000B6F5007F354628BF4FF40075934234BF4B
:1039700001220522D6E700F0C5F82918BAF1000F98
:1039800093D0C9E7A368DA6A914222D01868036825
:103990003A469B6898470028D8D04FF40075A7E7AF
:1039A00004F1100B5A4600F0B3F80028CEDB17D014
:1039B0002169A06876E7A37863F07F03A37004F120
:1039C000100200F013F90028C0D021692162A0681C
:1039D00068E783F824904FF0FF32DA62A368D5E7F6
:1039E000A3782169A06863F07F035A46A37000F0B2
:1039F000FDF80028DCD1A9E7E2699A4212D2A27848
:103A0000E36142F08003A3701A0701D523788BB9D4
:103A10004046BDE8F88FE169FFF7D6FE00287FF445
:103A20002DAF93E7074B1B6853B1A37843F0800396
:103A3000A370E9E72046FFF7A9FD0028E8D185E754
:103A4000A378E1E72053FF1FF8B54368816800F1D0
:103A50000C0604461868036832469B68984740B1D4
:103A600023789A07054607D423F0010323702846DC
:103A7000F8BD00252846F8BD6368A16818681F696D
:103A80000368324639449B6898470028F1D0237870
:103A9000EAE700BFF8B583688B42064614460FD0AC
:103AA0000378DA070F4612D4630716D506F10C0522
:103AB000002304F003041C4334702846B760F8BDAB
:103AC00010F90C3B04F003041C433470F8BDFFF7FD
:103AD000BBFF0028E8D10020F8BD736818680368B0
:103AE00006F10C051B682A46394698470028DFD1A5
:103AF000F1E700BF0378DB0701D401207047FFF72F
:103B0000A3BF00BF837940690239994008447047D8
:103B1000012933D9C369994230D870B5C379202BB4
:103B2000164605460C4618D0102B13D18369C1F3F5
:103B300007211944022200F50C70FFF7ABFF48B1D2
:103B4000E1B230F81130EA6993429ABF0120336044
:103B5000002070BD4FF0FF3070BD8169022201EB83
:103B6000D41100F50C70FFF795FF0028F2D004F097
:103B70007F0150F8213023F07043E4E74FF0FF302D
:103B8000704700BF01291DD938B5C369994206D8CD
:103B9000C379202B15460C4616D0102B01D00020DF
:103BA00038BD8369C1F30721194400F50C70032265
:103BB000FFF770FF03460028F1D0E1B2012023F89F
:103BC000115038BD002070478169032200F50C7048
:103BD00001EBD411FFF75EFF03460028DFD004F0AD
:103BE0007F01012043F8215038BD00BF2DE9F0418D
:103BF000054682B090460F46C1B9C668344604E017
:103C000001D0019BA3B1B4420BD0EB6901349C42BB
:103C100088BF0224214601AA2846FFF779FF002821
:103C2000EEDA0026304602B0BDE8F0810E46E5E748
:103C30006FF0704221462846FFF7A4FF0646002891
:103C4000EFD037B9EC603046C8F8004002B0BDE8AC
:103C5000F081394628462246FFF794FF0028F2D12A
:103C6000DFE700BF034B04481B681840B0FA80F040
:103C70004009704730100B4001000F00024B1868DC
:103C800000F00100704700BF24100B40014B187872
:103C9000704700BF3853FF1F01207047F8B5054635
:103CA00001F0B0FD064F064604E001F0ABFD801BBD
:103CB000B84203D8A84704460028F6D12046F8BDEC
:103CC00020A107002DE9F041DFF840800E4FC8F831
:103CD0000000054601F096FD064606E001F092FD63
:103CE000801BB8420AD804F037FFA84704460028D2
:103CF000F4D1C8F800002046BDE8F0810023C8F8E0
:103D000000302046BDE8F08120A107002853FF1FA6
:103D100038B504460F480D46FFF7C0FF08B1002034
:103D200038BD0D4A0D4B15600D481C60FFF7B6FFFE
:103D30000028F4D10B4A0C4B116819601968116006
:103D40001A68D207EBD51B6813F4702FE7D1012056
:103D500038BD00BF7D3C000008100B400C100B402C
:103D6000653C000030100B403453FF1F08B5074B73
:103D700007481968FFF7CCFF30B1064B186880F48C
:103D80008070C0F3002008BD012008BD3053FF1F24
:103D900000001A0D10100B40054B186810F00200BF
:103DA00005D01B6803481840B0FA80F040097047FE
:103DB0003453FF1F00007F11F8B5940700D143B9B9
:103DC0001E491F4B602040F24F1208701A600020FD
:103DD000F8BD07461B481D460E461446FFF772FF06
:103DE00008BB194B19491A4A4FF0010E83F800E03D
:103DF000184B08601B781460EBB971022B0416484D
:103E0000164E174C174A184D316043F40073036087
:103E1000256016481760FFF755FF0028D7D1BDE889
:103E2000F840FFF7B9BF0549054B29204FF4A972A7
:103E300008701A60CBE73146E0E700BFB008FF1F0B
:103E40002453FF1F6D3D00003853FF1F3453FF1FE5
:103E500000100B402C53FF1F04100B4008100B40A8
:103E600038100B400C100B4002007F118D3C0000FD
:103E700030B59307ADF5017D11D0154601236A4693
:103E80001048FFF799FF044680B1694628464FF471
:103E9000007201F005FB20460DF5017D30BD0123C8
:103EA0000848FFF789FF04460028F4D10649074B6C
:103EB0003120002440F25622087020461A600DF589
:103EC000017D30BD11003A11B008FF1F2453FF1FC0
:103ED00010B59307ADF5007D0C4606D01146684637
:103EE0004FF4007201F0DCFA6A46214601230748CC
:103EF000FFF762FF30B90649064B322440F2CE226A
:103F00000C701A600DF5007D10BD00BF01003A185D
:103F1000B008FF1F2453FF1F2DE9F041940715D06F
:103F20000646BBB115460C4601EB030801E0A0456F
:103F300010D031682A460F6830462146B847013410
:103F400005F500750028F2D1BDE8F0810748FFF7BC
:103F500033FF10B10120BDE8F0810549054B312444
:103F60004FF41A720C701A60BDE8F08137003A12F3
:103F7000B008FF1F2453FF1F2DE9F041940715D00F
:103F80000646BBB115460C4601EB030801E0A0450F
:103F900010D031682A468F6830462146B847013430
:103FA00005F500750028F2D1BDE8F0810748FFF75C
:103FB00003FF10B10120BDE8F0810549054B332412
:103FC00040F2DE220C701A60BDE8F08127003A1939
:103FD000B008FF1F2453FF1F10B4074C074A0849BD
:103FE00008480023236014680C60096811605DF8BC
:103FF000044B0370704700BF38100B4030100B406B
:104000003453FF1F3853FF1F90F8392090F83800C1
:10401000101A704790F8383090F839209A4205D934
:104020005A1C034480F83820187E70474FF0FF3048
:10403000704700BF2DE9F04190F801C00378C47AC1
:10404000877B90F80DE0C57B017C867C427C43EA4F
:104050000C23C3F30E03043B1BB20E2B04F003042A
:104060004EEA072845EA012142EA062223DD90F8BC
:1040700014C0C67C102B46EA0C2640F3888090F8CA
:1040800016C0437D43EA0C2C437A012B18D0042B35
:104090002AD0022B40D0032B1CD0052B2ED0082B6E
:1040A0002CD0112B42D0132B44D01E2B46D0F12BF9
:1040B00057D0BDE8F081437A0026012BB446E6D103
:1040C000A0F8D240A0F8CC80A0F8CE10A0F8D02064
:1040D000BDE8F081A0F8EA40A0F8E480A0F8E6107E
:1040E000A0F8E820BDE8F081A0F8DA40A0F8D4807C
:1040F000A0F8D610A0F8D820BDE8F081A0F8F640CE
:10410000A0F8EC80A0F8EE10A0F8F020A0F8F26083
:10411000A0F8F4C0BDE8F081A0F8E240A0F8DC808F
:10412000A0F8DE10A0F8E020BDE8F081A0F8F820AB
:10413000BDE8F08180F8FAE0BDE8F0816FF00E0193
:1041400080F8FB70091A00F10F0200F1170401E07A
:1041500012F8015FD0F8FC30134494425D54F7D15B
:10416000A7E7044601210B4804F0F2FB0A4801F0DE
:1041700059F8E37A072B9CD11421084804F0E8FB96
:10418000054801F04FF8A37B84F8003191E74FF028
:10419000000C79E7C84E01002809FF1FCC4E010032
:1041A00000B52DED028B90F80831B0F9DE2083B018
:1041B000584208EE102A08F0B5FC9FED0F0B41ECB9
:1041C000110B05F091FAB8EEC88A53EC102B18EEDB
:1041D000100ACDE9002308F0B7FCDDE9002308F060
:1041E00007FD08F0FDFF00EE100A03B0BDEC028BE6
:1041F0005DF804FBAFF30080000000000000004009
:1042000070B5194E054664240EE090F8393090F8E8
:1042100038209B1A002B4FF0010011DC01F016FB37
:10422000631E13F0FF040DD0D5F8B00003681B69BE
:10423000B342EAD098470346002B4FF00100EDDD72
:10424000012070BD95F8BC000028FAD0D5F8B85010
:1042500006492B680B225B6828469847284600F0E1
:10426000E1FF204670BD00BF09400000E44E0100A0
:1042700070B50E1E0546A8BF002405DA0DE001202A
:1042800001F0E4FAA64208DB95F8CA0001F0A6FAAC
:1042900001340028F3D1012070BD95F8BC0000283E
:1042A000FAD0D5F8B840054923680F225B6820464C
:1042B0009847204600F0B6FF002070BDF04E010088
:1042C000002900F09D802DE9F8434E4F06468946AF
:1042D0000025B9F11C0FC84628BF4FF01C0808F193
:1042E0000402D2B2012396F8B410D6F8B00004F05C
:1042F00047FF3046FFF784FF00287FD0D6F8B00094
:1043000003685B69BB4273D190F8382090F839108C
:10431000914206D9013280F83820D6F8B0000368FF
:104320005B69BB425ED190F8382090F83910914219
:1043300050D9013280F83820D6F8B00003685B69A4
:10434000BB424DD190F8382090F83910914241D9B4
:10435000013280F83820D6F8B00003685B69BB42B0
:104360003AD190F8383090F839209A4204D9013384
:1043700080F83830D6F8B000002418E090F83830D3
:1043800090F839209A4203F1010E00EB03011FD986
:1043900080F838E0087E01347F2DE4B203D8731929
:1043A00001351871ADB2444508D2D6F8B0000368A3
:1043B0005B69BB42E2D09847C0B2ECE7C8EB0909A1
:1043C0001FFA89F9B9F1000F83D10120BDE8F88304
:1043D000FF20E0E7BB42CFD09847D6F8B000CBE74C
:1043E0009847B8E79847D6F8B00003685B69A7E735
:1043F0009847D6F8B00003685B6992E7BDE8F88398
:1044000001207047154000002DE9F84FD0F8B0604A
:104410000446002E7AD00123042294F8B4103046CA
:1044200004F0AEFE2046FFF7EBFE054618B9002566
:104430002846BDE8F88FD4F8B030AE4F1A685269FC
:10444000BA4240F0298193F8381093F83900884235
:1044500040F24A814A1C83F838201944D4F8B0301D
:1044600091F818901A6852690FFA89FBBA4240F025
:104470001E8193F8380093F83910814240F22B8165
:10448000421C83F838201844D4F8B03090F818A0B3
:104490001A684FEA0A2152690EB2BA4240F01881F6
:1044A00093F8381093F83900884240F218814A1C7A
:1044B000194483F83820087ED4F8B0301A6852695D
:1044C000BA425FFA80F840F0FF8093F8382093F802
:1044D0003910914240F20C81511C1A4483F8381073
:1044E000107E84F8009046EA0B01C1F30E0184F8B7
:1044F00001A084F80280E070002998D0043989B2C4
:104500002046FFF7DDFE2846BDE8F88FFFF7B0FE36
:10451000054600288BD0D4F8C020D4F8C4E07648F3
:10452000764F02E0172908D00E4630F8023F97FB7D
:10453000F3F39E4506F10101F4D3714BD07A53F8A1
:10454000263023F470411B0941F0785103F4706365
:104550000B43E0B172B6D17AC80706D56948D16875
:104560000668314091610160D17A8F0706D56648AF
:10457000116906683140D1610160D17A4E0705D5D5
:1045800062485169066831401162016062B6126882
:10459000D168994207D05E4810605E49D36043F00D
:1045A000804010611160002194F8C80001F010F9FA
:1045B000D4F8C06033684FF000410022D9625A63DA
:1045C000DA6A002AFCDA986B4FF000410022D962C7
:1045D000C0B25A63DA6A002AFCDA996B4FF00047DE
:1045E0000022DF625FFA81FE5A63DA6A002AFCDA8F
:1045F0009F6B4FF0004C0022C3F82CC0FFB25A63EF
:10460000DA6A002AFCDA40EA01229B6BE370C2F30B
:104610000E02207084F801E0A770002A3FF407AF73
:10462000043A17B2002F19DD002001464FF0004C6C
:104630004FF0FF0E3268C2F82CC0C2F834E0D36AE3
:10464000002BFCDA7F2998BF001901F1010189B222
:10465000936B98BF0371B9420846EBDB012194F8D4
:10466000C80001F0B5F8D4F8C020D37A002B3FF48D
:10467000DFAED80703D5284B91691960D37A990723
:1046800003D5264BD1691960D37A5B077FF5D0AE8D
:10469000234B126A1A60CBE618469047D4F8B03024
:1046A0001A685FFA80F90FFA89FB5269DEE618464C
:1046B0009047D4F8B0301A68010252690EB25FFA1E
:1046C00080FAEAE64FF0FF0818469047C0B208E7C4
:1046D00018469047F0E64FF0FF0A6FF0FF06BA4227
:1046E000F0D1FF208046FCE64FF0FF0BD946BDE637
:1046F000FF20F6E6154000008A4D0100006CDC0248
:10470000504E010080E100E084E100E088E100E03B
:1047100001403F0000003F8000E100E004E100E0D4
:1047200008E100E038B500210546FFF76DFE0446BC
:1047300038B1AB78032B06D0022B07D12B79F12BA4
:1047400007D0204638BD2B79FB2B09D0002420460A
:1047500038BDAB79072BF4D12B7A85F80031F0E71F
:104760002846FFF767FCECE72DE9F043D0F8B030BE
:1047700002F1040883B0064615460F465FFA88F832
:10478000002B41D090F8B42001218A4083F83B20CF
:1047900083F85E1083F85D10D0F8B00003684146DE
:1047A0001B689847D6F8B000036800211B6898473B
:1047B000D6F8B000036839461B6837449847D6F8E6
:1047C000B00097F8841003684A1C1B6887F884209F
:1047D00098476DB1013DEDB204353544F41CD6F86F
:1047E000B00014F8011F03681B689847A542F6D172
:1047F000D6F8B000012104F039FCB0FA80F4640965
:10480000204603B0BDE8F0837F210193FFF730FD20
:10481000019B04460028F3D0D6F8C020D6F8C490F7
:104820005448DFF878C100E0734630F8021F9CFB63
:10483000F1F1894503F1010E02D2BEF1170FF3D158
:104840004D49D07A51F82330190923F4704301F40B
:10485000706143F0785343EA010EE0B172B6D17A49
:10486000CB0706D54548D3680168194091610160BE
:10487000D17A880706D54248136901681940D16189
:104880000160D17A4B0705D53E485369016819404C
:104890001162016062B61268D168714508D03A4869
:1048A00010603A49C2F80CE04EF08040106111608F
:1048B000002196F8C80000F08BFFD6F8C0100B68F6
:1048C0004FF00042DA62C3F83480DA6A002AFCDA78
:1048D0004FF000400022D3F838E0D8625A63DA6A19
:1048E000002AFCDA4FF00042986BDA625F63DA6A02
:1048F000002AFCDA37449B6B97F884305A1C87F8FF
:10490000842009684FF00042CA624B63CB6A002BD7
:10491000FCDA8B6B85B1681EC0B204303044F21CE7
:104920004FF0004512F8013FCD624B63CB6A002B7C
:10493000FCDA90428B6BF5D1012196F8C80000F0AB
:1049400047FFD6F8C030DA7A002A3FF459AFD007D3
:1049500003D50F4A99691160DA7A910703D50D4A98
:10496000D9691160DA7A52077FF54AAF0A4A1B6AA1
:10497000136045E78A4D0100504E010080E100E0E0
:1049800084E100E088E100E001403F0000003F805A
:1049900000E100E004E100E008E100E0006CDC027E
:1049A000F8B5079F324D9DF818E0089E80F8C920A1
:1049B0000446AF4228BF2F46002580F8CA3080F851
:1049C000C81084F8CBE00846C4F8C0600121C4F8E0
:1049D000C470C4F8B05000F00FFF94F8C900012172
:1049E00000F00AFF94F8CA00022100F005FF94F8D5
:1049F000CB00012100F000FF94F8C800012100F075
:104A0000E7FE94F8C900012100F0E2FE294694F87F
:104A1000CB0000F0DDFE022000F018FF94F8CB0080
:104A2000012100F0D5FE7F212046FFF721FCD4F8BC
:104A3000C000FEF75DFD7F212046FFF7E5FC7F21EA
:104A40002046FFF7E1FCF92302221146657123712C
:104A50002046FFF789FE20467F21FFF7D5FC28B1CD
:104A60002079A0F1F800B0FA80F04009F8BD00BF4D
:104A7000C0C62D00F0B54FF47A7404FB02F2151293
:104A80001714160E4FF0FD0E857242721D0A002299
:104A900041714374190C1B0EC1748271C271027290
:104AA00042738273C273027480F804E0C7720673A3
:104AB0008574037511220221BDE8F040FFF754BE52
:104AC0000A4600230221FFF7D5BF00BF10B4EFF361
:104AD000108272B6437F33B9017F012908D00329C0
:104AE00010D00123437702B962B65DF8044B7047DA
:104AF000114C2168A1B1114943610B6883610860C1
:104B00005861EEE70E4C216881B10E4943610B6894
:104B10008361086058610C4B4FF080511960E0E7E9
:104B2000064B4161816120601860DAE7054B416105
:104B3000816120601860EEE74853FF1F4453FF1F58
:104B40003C53FF1F4053FF1F04ED00E070B5EFF32F
:104B5000108272B60C4C206880B10C4E002543695F
:104B6000236073B19D6102B962B645778368984747
:104B7000EFF3108272B620680028F0D102B962B655
:104B800070BD3360EFE700BF3C53FF1F4053FF1F72
:104B9000FFF7DCBF024A136801331360704700BFA0
:104BA0005053FF1F0368C9B21B6818470368C9B296
:104BB0001B6818470368C9B21B6818470368C9B265
:104BC0001B681847084B4A08134410B50446B3FB4A
:104BD000F1F000F071FF054B1B7803B110BD2046CA
:104BE000BDE8104004F02EB800882A112309FF1FE9
:104BF00008B5084601F07CF9012008BD08B5084653
:104C000001F076F9012008BD38B508460D4609F0D7
:104C100057F904460146284601F074F9204638BD8C
:104C200010B508461446114601F06CF9204610BD37
:104C300001F046BA08B5084601F032F9003018BF55
:104C4000012008BD08B5084601F008F9003018BF7A
:104C5000012008BD0846114601F07CB8084601F065
:104C6000C3B800BF084601F059B800BF00F0E2BF6A
:104C700010B5064B144603EB5100B0FBF1F000F009
:104C80001BFF2046BDE8104000F09EBF00882A119F
:104C900001F0FEB901F0C8B901F0B6B901F096B95A
:104CA00001F0A0B9084B4A08134410B50446B3FB01
:104CB000F1F001F0B1FA054B1B7803B110BD2046AD
:104CC000BDE8104003F0BEBF00882A112409FF1F71
:104CD00008B5084601F076FC012008BD08B5084675
:104CE00001F070FC012008BD38B508460D4609F0FA
:104CF000E7F804460146284601F0BCFC204638BDD2
:104D000010B508461446114601F0B4FC204610BD0B
:104D100001F08EBD08B5084601F02CFC003018BF2C
:104D2000012008BD08B5084601F002FC003018BF9C
:104D3000012008BD0846114601F092BB084601F06B
:104D4000C9BB00BF084601F06FBB00BF01F00EBB3E
:104D500010B5064B144603EB5100B0FBF1F001F027
:104D60005BFA2046BDE8104001F0CABA00882A115B
:104D700001F046BD01F010BD01F0FEBC01F0DEBC4B
:104D800001F0E8BC0368064A1B68934205D110B5E0
:104D9000C8B201F017FC012010BDC9B2184700BF0E
:104DA000DD4C00000368064A1B68934205D110B52C
:104DB000C8B201F007FC012010BDC9B2184700BFFE
:104DC000DD4C00000368064A1B68934205D110B50C
:104DD000C8B201F0F7FB012010BDC9B2184700BFEF
:104DE000DD4C00000368064A1B68934205D110B5EC
:104DF000C8B201F0E7FB012010BDC9B2184700BFDF
:104E0000DD4C00004B0803F1B76303F5584310B5C0
:104E10000446B3FBF1F001F009FE044B1B7803B12B
:104E200010BD2046BDE8104003F00CBF2509FF1F50
:104E300008B5084601F040FF012008BD08B5084646
:104E400001F03AFF012008BD38B508460D4609F0CB
:104E500037F804460146284601F038FF204638BDA1
:104E600010B508461446114601F030FF204610BD2B
:104E700001F0BCBF08B5084601F0FEFE003018BFC7
:104E8000012008BD08B5084601F0D4FE003018BF67
:104E9000012008BD0846114601F0A0BE084601F0F9
:104EA000C7BE00BF084601F07DBE00BF01F042BE94
:104EB00010B54B0803F1B760144600F55840B0FB3D
:104EC000F1F001F0B3FD2046BDE8104001F0FCBD5B
:104ED00001F074BF01F03EBF01F02CBF01F00CBF28
:104EE00001F016BF0368064A1B68934205D110B54E
:104EF000C8B201F0E1FE012010BDC9B2184700BFE1
:104F00003D4E00000368064A1B68934205D110B568
:104F1000C8B201F0D1FE012010BDC9B2184700BFD0
:104F20003D4E00000368064A1B68934205D110B548
:104F3000C8B201F0C1FE012010BDC9B2184700BFC0
:104F40003D4E00000368064A1B68934205D110B528
:104F5000C8B201F0B1FE012010BDC9B2184700BFB0
:104F60003D4E00004B0803F1B76303F5584310B5FD
:104F70000446B3FBF1F002F009F8044B1B7803B1CF
:104F800010BD2046BDE8104003F05CBE2609FF1F9F
:104F900008B5084602F0A6F9012008BD08B5084684
:104FA00002F0A0F9012008BD38B508460D4608F00A
:104FB00087FF04460146284602F09EF9204638BD88
:104FC00010B508461446114602F096F9204610BD69
:104FD00002F022BA08B5084602F082F9003018BF84
:104FE000012008BD08B5084602F058F9003018BF86
:104FF000012008BD0846114602F0E8B8084602F054
:105000001FB900BF084602F0C5B800BF02F064B87F
:1050100010B54B0803F1B760144600F55840B0FBDB
:10502000F1F001F0B3FF2046BDE8104002F01EB8D9
:1050300002F0DAB902F0A4B902F092B902F072B942
:1050400002F07CB90368064A1B68934205D110B58B
:10505000C8B202F047F9012010BDC9B2184700BF1D
:105060009D4F00000368064A1B68934205D110B5A6
:10507000C8B202F037F9012010BDC9B2184700BF0D
:105080009D4F00000368064A1B68934205D110B586
:10509000C8B202F027F9012010BDC9B2184700BFFD
:1050A0009D4F00000368064A1B68934205D110B566
:1050B000C8B202F017F9012010BDC9B2184700BFED
:1050C0009D4F00004B0803F1B76303F5584310B53B
:1050D0000446B3FBF1F002F06FFA044B1B7803B106
:1050E00010BD2046BDE8104003F0ACBD2709FF1FEE
:1050F00008B5084602F0A6FB012008BD08B5084621
:1051000002F0A0FB012008BD38B508460D4608F0A6
:10511000D7FE04460146284602F09EFB204638BDD5
:1051200010B508461446114602F096FB204610BD05
:1051300002F022BC08B5084602F064FB003018BF3C
:10514000012008BD08B5084602F03AFB003018BF40
:10515000012008BD0846114602F006BB084602F0D1
:105160002DBB00BF084602F0E3BA00BF02F0A8BAA8
:1051700010B54B0803F1B760144600F55840B0FB7A
:10518000F1F002F019FA2046BDE8104002F062BAD0
:1051900002F0DABB02F0A4BB02F092BB02F072BBD9
:1051A00002F07CBB0368064A1B68934205D110B528
:1051B000C8B202F047FB012010BDC9B2184700BFBA
:1051C000FD5000000368064A1B68934205D110B5E4
:1051D000C8B202F037FB012010BDC9B2184700BFAA
:1051E000FD5000000368064A1B68934205D110B5C4
:1051F000C8B202F027FB012010BDC9B2184700BF9A
:10520000FD5000000368064A1B68934205D110B5A3
:10521000C8B202F017FB012010BDC9B2184700BF89
:10522000FD50000000B5064A036812885B6883B031
:1052300001A9ADF804200222984703B05DF804FBF1
:1052400088510100F0B507468BB0002A33D0012AFF
:1052500008BF0A2251B3212400E0F4B2B1FBF2F5F9
:1052600002FB1511C8B2092900F1300198BFC8B27C
:105270000AA988BF3730214488BFC0B201F8240C86
:10528000661E2946002DE8D133B1013CE4B20AABD9
:1052900023442D2203F8242C3B6801AA11195B68D2
:1052A0003846C4F1220298470BB0F0BD30228DF889
:1052B00025202124E8E70368C9B21B6898470BB092
:1052C000F0BD00BF0029BABF49422D2300230A22A6
:1052D000FFF7B8BFFFFFFFFF2DE9F04357EC106B5E
:1052E00085B005460C4610EE102A3B4610EE100A1B
:1052F000394607F017FF002840F0B28027F0004938
:10530000304649464FF0FF32594B07F00BFF90B93A
:10531000304649464FF0FF32554B07F0E5FE50B995
:105320002B6854495B6828460322984780464046CC
:1053300005B0BDE8F0834FF060424F4B3046394630
:1053400007F0E6FE002872D14FF060424B4B30462A
:10535000394607F0BFFE002869D1002200233046FD
:10536000394607F0B7FE002864D18146002C67D08B
:10537000434900204FF000083BA3D3E9002308F184
:10538000010807F035FC5FFA88F39C42F4D8024626
:105390000B463046394607F079FA0F46064607F0C5
:1053A000FFFE804607F0AEFB02460B46304639460C
:1053B00007F06AFA4B4606460F460A22414628463F
:1053C000FFF740FF0F2C28BF0F2404F101092E2303
:1053D00080465FFA89F98DF8003001240022294BBC
:1053E0003046394607F004FC0F46064607F0D8FE63
:1053F00004AB2344C0B200F1300203F8102C07F0D4
:1054000091FB02460B463046394607F03DFA01341F
:10541000E4B24C4506460F46E0D12B6822465B6855
:10542000284669469847404605B0BDE8F0832B689A
:10543000154977E707F100431F464FF0010995E74B
:1054400000220F4B3046394607F020FA07F0A8FE3D
:105450004B4601460A222846FFF7F4FE804666E7DF
:105460002B680A495EE700BF000000A09999B93F88
:10547000FFFFEF7F94510100FFFFEF41FFFFEFC1FE
:105480000000E03F00002440905101008C510100D9
:1054900008B5FBF779FCFBF767FC03F05DFBFAE767
:1054A000844641EA000313F003036DD1403A41D32F
:1054B00051F8043B40F8043B51F8043B40F8043BEE
:1054C00051F8043B40F8043B51F8043B40F8043BDE
:1054D00051F8043B40F8043B51F8043B40F8043BCE
:1054E00051F8043B40F8043B51F8043B40F8043BBE
:1054F00051F8043B40F8043B51F8043B40F8043BAE
:1055000051F8043B40F8043B51F8043B40F8043B9D
:1055100051F8043B40F8043B51F8043B40F8043B8D
:1055200051F8043B40F8043B51F8043B40F8043B7D
:10553000403ABDD2303211D351F8043B40F8043B1D
:1055400051F8043B40F8043B51F8043B40F8043B5D
:1055500051F8043B40F8043B103AEDD20C3205D32D
:1055600051F8043B40F8043B043AF9D2043208D025
:10557000D2071CBF11F8013B00F8013B01D30B8897
:1055800003806046704700BF082A13D38B078DD075
:1055900010F003038AD0C3F10403D21ADB071CBF47
:1055A00011F8013B00F8013B80D331F8023B20F8B1
:1055B000023B7BE7043AD9D3013A11F8013B00F8EA
:1055C000013BF9D20B7803704B7843708B78837072
:1055D0006046704708B5104C08E0236859050DD4A3
:1055E00023681A050FD42368DB0411D423685803F9
:1055F000F3D502F023FB23685905F1D500F086FDB1
:1056000023681A05EFD501F039F92368DB04EDD5DD
:1056100001F0FEFBEAE700BF3480044008B5FFF765
:10562000D9FF00BF014B10221A80704700200540AF
:10563000704700BF094908B50B6830B16A46184485
:10564000A2F50052904202D20860184608BD07F049
:1056500017FE0C2303604FF0FF3008BD1809FF1F31
:10566000EFF3138070B9EFF310836BB9EFF305829A
:105670005AB94FF48070EFF311832BB1984228BFD1
:10568000184670474FF0FF3070470F2A01D8184670
:10569000F1E7014BD05CEEE7F0E300E0F0B44D1E23
:1056A0002E46002400E00134B0FBF2F302FB1300AD
:1056B000092800F130078ABF3730F8B2C0B206F8C7
:1056C000010F1846002BEED10A1953704CB1107817
:1056D00015F8016F28700133E01A834202F801695E
:1056E000F5DB0846F0BC704710B4114B53F830207E
:1056F00092F8804234B1012379B182F880305DF8AC
:10570000044B704703EBC0035B681A6851B922F081
:1057100002021A605DF8044B704782F800315DF8B0
:10572000044B704742F003021A605DF8044B704767
:10573000985101001C4A02EBC00301295B6811D09B
:1057400004291BD052F83000002280F8802229B1B1
:10575000022920D0032922D01A6070474FF48072AA
:105760001A60704752F830004FF4A27280F880122D
:105770001A601A6822F020021A60704752F830103E
:105780004FF4A272012081F880021A601A6842F078
:1057900020021A60704740F203121A6070474FF4FB
:1057A00081721A60704700BF9851010030B4054BF8
:1057B000054D064C002210211A602A6020601960F5
:1057C00030BC704714D0034004D0034000D00340E5
:1057D0003F2801D8FFF788BF704700BF3F2806D891
:1057E000044B53F8303093F80002C0B270470020E9
:1057F000704700BF985101003F2801D8FFF79ABFBA
:10580000704700BF72B60D490D4B0E4A1B68086801
:10581000126862B6520102D5322B88BF01300A49A4
:10582000C3F50C334FF47A7203F27F23A1FB031309
:1058300002FB00F000EB5310704700BF5053FF1FF6
:1058400018E000E004ED00E0398EE3382DE9F8437C
:10585000054672B6214F224B224A1B683C681268EB
:1058600062B6520102D5322B88BF0134A5B3C3F50D
:105870000C331D4EDFF86890DFF8688003F27F2359
:105880004FF47A72A6FB031302FB04F404EB5314E7
:1058900072B6D9F800103A68D8F800E062B6C1F5DF
:1058A0000C3303F27F23A6FB03031EF0806FC4EBCF
:1058B00053134FF47A7002D0322988BF013200FBB3
:1058C0000233B3F57A7F04D3013D05D004F57A7431
:1058D000DEE703F041F9DBE7BDE8F8835053FF1F33
:1058E00018E000E004ED00E0398EE338F8B53E4BF7
:1058F0003E49DFF818C13E4E3E4ADFF814E13E4D06
:105900003E4C3F4F4FF0006018604FF080501860E1
:105910004FF0005018604FF0804018604FF000408A
:1059200018600020086028234BF6FF71CCF80010A7
:10593000CEF8003033600EF5012E13602B6023602B
:1059400005F500253B6004F50024B36207F5002748
:10595000936206F5012602F501220EF1100E05F6FE
:10596000E87504F6E87407F57F67103220362B607F
:105970002360CEF800303B6013603360214EBB6182
:10598000936109223260A7F5002706F58056203F73
:10599000083638603160BB60F36047F8042C06F5C8
:1059A000FD2607F5FE2706F2FC76043730603960E5
:1059B000B360FB6046F8042C0836C7F8FC0F06F607
:1059C000FC76114831602B602360026003F050F9CF
:1059D0001920FFF73BFF02F097FE40F21310BDE8DD
:1059E000F840FFF733BF00BF04E100E0048003404C
:1059F000148003401C800340248003402C8003401B
:105A0000348003400080034000900B400880034036
:105A10000C8003402DE9F84F214B1B6807460BB162
:105A200001221A70DFF888901E4D99F80040DFF8C7
:105A300084801D4E01343F2C8ABF4FF0000A5FFA6C
:105A400084FA5446AB462B78A34216D1FFF708FEE2
:105A500040281FDC33791B06F5D59BF80030013355
:105A60003F2B86BF00221346DAB218F80330DBB2B0
:105A7000F3712A702B78A342E8D00C490A4BFFB28D
:105A800008F804700120BC22087089F800A0DA70C0
:105A9000BDE8F88FFF28D6DD03F05EF8D3E700BF3E
:105AA000E453FF1FE153FF1F00A00640E053FF1F18
:105AB000E853FF1F5C53FF1F324A33491368F0B5A8
:105AC00043F4806313600A78304F314E314D324CCD
:105AD00032490023152A3B7033702B7023700B70F2
